{
	"contractName": "ERC20TokenBalance",
	"abi": [
		{
			"inputs": [],
			"payable": false,
			"stateMutability": "nonpayable",
			"type": "constructor"
		},
		{
			"constant": false,
			"inputs": [],
			"name": "kill",
			"outputs": [],
			"payable": false,
			"stateMutability": "nonpayable",
			"type": "function"
		},
		{
			"constant": true,
			"inputs": [
				{
					"name": "tokenAddress",
					"type": "address"
				},
				{
					"name": "sender",
					"type": "address"
				}
			],
			"name": "getBalance",
			"outputs": [
				{
					"name": "",
					"type": "uint256"
				}
			],
			"payable": false,
			"stateMutability": "view",
			"type": "function"
		}
	],
	"bytecode": "0x608060405234801561001057600080fd5b50336000806101000a81548173ffffffffffffffffffffffffffffffffffffffff021916908373ffffffffffffffffffffffffffffffffffffffff160217905550610285806100606000396000f30060806040526004361061004c576000357c0100000000000000000000000000000000000000000000000000000000900463ffffffff16806341c0e1b514610051578063d4fac45d14610068575b600080fd5b34801561005d57600080fd5b506100666100df565b005b34801561007457600080fd5b506100c9600480360381019080803573ffffffffffffffffffffffffffffffffffffffff169060200190929190803573ffffffffffffffffffffffffffffffffffffffff169060200190929190505050610174565b6040518082815260200191505060405180910390f35b6000809054906101000a900473ffffffffffffffffffffffffffffffffffffffff1673ffffffffffffffffffffffffffffffffffffffff163373ffffffffffffffffffffffffffffffffffffffff1614151561013a57600080fd5b6000809054906101000a900473ffffffffffffffffffffffffffffffffffffffff1673ffffffffffffffffffffffffffffffffffffffff16ff5b6000808390508073ffffffffffffffffffffffffffffffffffffffff166370a08231846040518263ffffffff167c0100000000000000000000000000000000000000000000000000000000028152600401808273ffffffffffffffffffffffffffffffffffffffff1673ffffffffffffffffffffffffffffffffffffffff168152602001915050602060405180830381600087803b15801561021557600080fd5b505af1158015610229573d6000803e3d6000fd5b505050506040513d602081101561023f57600080fd5b8101908080519060200190929190505050915050929150505600a165627a7a72305820fb1f527c63a95858cb102cccca431b7ba0394d39dec115f6f467ad50b57e15800029",
	"source": "pragma solidity ^0.4.23;\n\nimport './SafeMath.sol';\nimport './StandardToken.sol';\n\n/**\n * @title ERC20TokenBalance\n */\ncontract ERC20TokenBalance {\n\taddress private owner;\n\n\t/**\n\t * @dev Checks if owner addresss is calling\n\t */\n\tmodifier onlyOwner {\n\t\trequire(msg.sender == owner);\n\t\t_;\n\t}\n\n\t/**\n\t * Constructor\n\t */\n\tconstructor() public {\n\t\towner = msg.sender;\n\t}\n\n\t/******************************************/\n\t/*           OWNER ONLY METHODS           */\n\t/******************************************/\n\n\t/**\n\t * @dev Allows owner to kill the contract\n\t */\n\tfunction kill() public onlyOwner {\n\t\tselfdestruct(owner);\n\t}\n\n\t/******************************************/\n\t/*            PUBLIC METHODS              */\n\t/******************************************/\n\n\t/**\n\t * @dev Allows user to get ERC20 token balance\n\t */\n\tfunction getBalance(address tokenAddress, address sender) public constant returns (uint256) {\n\t\tStandardToken _token = StandardToken(tokenAddress);\n\t\treturn _token.balanceOf(sender);\n\t}\n}\n",
	"sourcePath": "/Users/johanmulyono/Work/erc20-token-balance/contracts/ERC20TokenBalance.sol",
	"compiler": {
		"name": "solc",
		"version": "0.4.23+commit.124ca40d.Emscripten.clang"
	},
	"schemaVersion": "2.0.0",
	"updatedAt": "2018-05-15T08:53:58.015Z"
}